{
  "contractName": "Order",
  "abi": [
    {
      "inputs": [],
      "payable": false,
      "stateMutability": "nonpayable",
      "type": "constructor"
    },
    {
      "anonymous": false,
      "inputs": [
        {
          "indexed": false,
          "internalType": "uint256",
          "name": "orderId",
          "type": "uint256"
        },
        {
          "indexed": false,
          "internalType": "uint256",
          "name": "creationDate",
          "type": "uint256"
        }
      ],
      "name": "OrderCreated",
      "type": "event"
    },
    {
      "anonymous": false,
      "inputs": [
        {
          "indexed": false,
          "internalType": "uint256",
          "name": "id",
          "type": "uint256"
        },
        {
          "indexed": false,
          "internalType": "string",
          "name": "productName",
          "type": "string"
        },
        {
          "indexed": false,
          "internalType": "uint256",
          "name": "price",
          "type": "uint256"
        },
        {
          "indexed": false,
          "internalType": "uint256",
          "name": "quantity",
          "type": "uint256"
        },
        {
          "indexed": false,
          "internalType": "address payable",
          "name": "merchant",
          "type": "address"
        }
      ],
      "name": "ProductAdded",
      "type": "event"
    },
    {
      "anonymous": false,
      "inputs": [
        {
          "indexed": false,
          "internalType": "uint256",
          "name": "_productId",
          "type": "uint256"
        },
        {
          "indexed": false,
          "internalType": "uint256",
          "name": "_quantity",
          "type": "uint256"
        }
      ],
      "name": "ProductAddedToOrder",
      "type": "event"
    },
    {
      "anonymous": false,
      "inputs": [
        {
          "indexed": false,
          "internalType": "string",
          "name": "username",
          "type": "string"
        },
        {
          "indexed": false,
          "internalType": "address",
          "name": "userAddress",
          "type": "address"
        }
      ],
      "name": "UserCreated",
      "type": "event"
    },
    {
      "constant": true,
      "inputs": [],
      "name": "orderCount",
      "outputs": [
        {
          "internalType": "uint256",
          "name": "",
          "type": "uint256"
        }
      ],
      "payable": false,
      "stateMutability": "view",
      "type": "function"
    },
    {
      "constant": true,
      "inputs": [
        {
          "internalType": "uint256",
          "name": "",
          "type": "uint256"
        }
      ],
      "name": "orders",
      "outputs": [
        {
          "internalType": "uint256",
          "name": "orderId",
          "type": "uint256"
        },
        {
          "internalType": "uint256",
          "name": "productCount",
          "type": "uint256"
        },
        {
          "internalType": "uint256",
          "name": "creationDate",
          "type": "uint256"
        },
        {
          "internalType": "address payable",
          "name": "buyer",
          "type": "address"
        },
        {
          "internalType": "enum Order.State",
          "name": "orderState",
          "type": "uint8"
        },
        {
          "internalType": "uint256",
          "name": "totalSum",
          "type": "uint256"
        }
      ],
      "payable": false,
      "stateMutability": "view",
      "type": "function"
    },
    {
      "constant": true,
      "inputs": [],
      "name": "productCount",
      "outputs": [
        {
          "internalType": "uint256",
          "name": "",
          "type": "uint256"
        }
      ],
      "payable": false,
      "stateMutability": "view",
      "type": "function"
    },
    {
      "constant": true,
      "inputs": [
        {
          "internalType": "uint256",
          "name": "",
          "type": "uint256"
        }
      ],
      "name": "products",
      "outputs": [
        {
          "internalType": "uint256",
          "name": "id",
          "type": "uint256"
        },
        {
          "internalType": "string",
          "name": "productName",
          "type": "string"
        },
        {
          "internalType": "uint256",
          "name": "price",
          "type": "uint256"
        },
        {
          "internalType": "uint256",
          "name": "availableQuantity",
          "type": "uint256"
        },
        {
          "internalType": "address payable",
          "name": "merchant",
          "type": "address"
        }
      ],
      "payable": false,
      "stateMutability": "view",
      "type": "function"
    },
    {
      "constant": true,
      "inputs": [],
      "name": "userCount",
      "outputs": [
        {
          "internalType": "uint256",
          "name": "",
          "type": "uint256"
        }
      ],
      "payable": false,
      "stateMutability": "view",
      "type": "function"
    },
    {
      "constant": true,
      "inputs": [
        {
          "internalType": "string",
          "name": "",
          "type": "string"
        }
      ],
      "name": "users",
      "outputs": [
        {
          "internalType": "string",
          "name": "username",
          "type": "string"
        },
        {
          "internalType": "string",
          "name": "password",
          "type": "string"
        },
        {
          "internalType": "address payable",
          "name": "userAddress",
          "type": "address"
        }
      ],
      "payable": false,
      "stateMutability": "view",
      "type": "function"
    },
    {
      "constant": false,
      "inputs": [
        {
          "internalType": "string",
          "name": "_username",
          "type": "string"
        },
        {
          "internalType": "string",
          "name": "_password",
          "type": "string"
        }
      ],
      "name": "createUser",
      "outputs": [],
      "payable": false,
      "stateMutability": "nonpayable",
      "type": "function"
    },
    {
      "constant": true,
      "inputs": [
        {
          "internalType": "string",
          "name": "_username",
          "type": "string"
        },
        {
          "internalType": "string",
          "name": "_password",
          "type": "string"
        }
      ],
      "name": "checkUser",
      "outputs": [
        {
          "internalType": "bool",
          "name": "",
          "type": "bool"
        }
      ],
      "payable": false,
      "stateMutability": "view",
      "type": "function"
    },
    {
      "constant": false,
      "inputs": [],
      "name": "createOrder",
      "outputs": [],
      "payable": false,
      "stateMutability": "nonpayable",
      "type": "function"
    },
    {
      "constant": false,
      "inputs": [
        {
          "internalType": "uint256",
          "name": "productId",
          "type": "uint256"
        },
        {
          "internalType": "uint256",
          "name": "quantity",
          "type": "uint256"
        },
        {
          "internalType": "uint256",
          "name": "orderId",
          "type": "uint256"
        }
      ],
      "name": "addProductToOrder",
      "outputs": [],
      "payable": false,
      "stateMutability": "nonpayable",
      "type": "function"
    },
    {
      "constant": false,
      "inputs": [
        {
          "internalType": "uint256",
          "name": "orderId",
          "type": "uint256"
        }
      ],
      "name": "submitOrder",
      "outputs": [],
      "payable": false,
      "stateMutability": "nonpayable",
      "type": "function"
    },
    {
      "constant": true,
      "inputs": [
        {
          "internalType": "string",
          "name": "username",
          "type": "string"
        }
      ],
      "name": "userReturn",
      "outputs": [
        {
          "internalType": "address",
          "name": "",
          "type": "address"
        }
      ],
      "payable": false,
      "stateMutability": "view",
      "type": "function"
    },
    {
      "constant": true,
      "inputs": [
        {
          "internalType": "uint256",
          "name": "orderId",
          "type": "uint256"
        },
        {
          "internalType": "uint256",
          "name": "productNo",
          "type": "uint256"
        }
      ],
      "name": "getAddedProduct",
      "outputs": [
        {
          "internalType": "uint256",
          "name": "",
          "type": "uint256"
        },
        {
          "internalType": "uint256",
          "name": "",
          "type": "uint256"
        }
      ],
      "payable": false,
      "stateMutability": "view",
      "type": "function"
    }
  ],
  "bytecode": "0x608060405260008055600060015560006002553480156200001f57600080fd5b506200006a6040518060400160405280601081526020017f536b616c62696d6f206d61c5a1696e6100000000000000000000000000000000815250600560036200014e60201b60201c565b620000b46040518060400160405280600a81526020017f4b6169746c656e74c49700000000000000000000000000000000000000000000815250600860026200014e60201b60201c565b620000fe6040518060400160405280600a81526020017f476172747261756b697300000000000000000000000000000000000000000000815250600260056200014e60201b60201c565b620001486040518060400160405280600881526020017f4f726b616974c497000000000000000000000000000000000000000000000000815250600460056200014e60201b60201c565b620002ed565b6040518060a0016040528060005481526020018481526020018381526020018281526020013373ffffffffffffffffffffffffffffffffffffffff168152506003600080548152602001908152602001600020600082015181600001556020820151816001019080519060200190620001c99291906200023e565b50604082015181600201556060820151816003015560808201518160040160006101000a81548173ffffffffffffffffffffffffffffffffffffffff021916908373ffffffffffffffffffffffffffffffffffffffff1602179055509050506000808154809291906001019190505550505050565b828054600181600116156101000203166002900490600052602060002090601f016020900481019282601f106200028157805160ff1916838001178555620002b2565b82800160010185558215620002b2579182015b82811115620002b157825182559160200191906001019062000294565b5b509050620002c19190620002c5565b5090565b620002ea91905b80821115620002e6576000816000905550600101620002cc565b5090565b90565b611a3280620002fd6000396000f3fe608060405234801561001057600080fd5b50600436106100cf5760003560e01c80638219b6f21161008c578063a85c38ef11610066578063a85c38ef146106be578063b51c0b651461075d578063c4174257146108c7578063e0f6ef87146108f5576100cf565b80638219b6f2146104d757806387b162b51461052a5780638e3f4acf1461067c576100cf565b806307973ccf146100d45780632453ffa8146100f25780633cf77ef0146101105780636512e6ec1461020b578063689e1c03146102155780637acc0b20146103e8575b600080fd5b6100dc610913565b6040518082815260200191505060405180910390f35b6100fa610919565b6040518082815260200191505060405180910390f35b6101c96004803603602081101561012657600080fd5b810190808035906020019064010000000081111561014357600080fd5b82018360208201111561015557600080fd5b8035906020019184600183028401116401000000008311171561017757600080fd5b91908080601f016020809104026020016040519081016040528093929190818152602001838380828437600081840152601f19601f82011690508083019250505050505050919291929050505061091f565b604051808273ffffffffffffffffffffffffffffffffffffffff1673ffffffffffffffffffffffffffffffffffffffff16815260200191505060405180910390f35b610213610b46565b005b6102ce6004803603602081101561022b57600080fd5b810190808035906020019064010000000081111561024857600080fd5b82018360208201111561025a57600080fd5b8035906020019184600183028401116401000000008311171561027c57600080fd5b91908080601f016020809104026020016040519081016040528093929190818152602001838380828437600081840152601f19601f820116905080830192505050505050509192919290505050610c32565b6040518080602001806020018473ffffffffffffffffffffffffffffffffffffffff1673ffffffffffffffffffffffffffffffffffffffff168152602001838103835286818151815260200191508051906020019080838360005b83811015610344578082015181840152602081019050610329565b50505050905090810190601f1680156103715780820380516001836020036101000a031916815260200191505b50838103825285818151815260200191508051906020019080838360005b838110156103aa57808201518184015260208101905061038f565b50505050905090810190601f1680156103d75780820380516001836020036101000a031916815260200191505b509550505050505060405180910390f35b610414600480360360208110156103fe57600080fd5b8101908080359060200190929190505050610dc2565b60405180868152602001806020018581526020018481526020018373ffffffffffffffffffffffffffffffffffffffff1673ffffffffffffffffffffffffffffffffffffffff168152602001828103825286818151815260200191508051906020019080838360005b8381101561049857808201518184015260208101905061047d565b50505050905090810190601f1680156104c55780820380516001836020036101000a031916815260200191505b50965050505050505060405180910390f35b61050d600480360360408110156104ed57600080fd5b810190808035906020019092919080359060200190929190505050610eb0565b604051808381526020018281526020019250505060405180910390f35b61067a6004803603604081101561054057600080fd5b810190808035906020019064010000000081111561055d57600080fd5b82018360208201111561056f57600080fd5b8035906020019184600183028401116401000000008311171561059157600080fd5b91908080601f016020809104026020016040519081016040528093929190818152602001838380828437600081840152601f19601f820116905080830192505050505050509192919290803590602001906401000000008111156105f457600080fd5b82018360208201111561060657600080fd5b8035906020019184600183028401116401000000008311171561062857600080fd5b91908080601f016020809104026020016040519081016040528093929190818152602001838380828437600081840152601f19601f820116905080830192505050505050509192919290505050610f25565b005b6106bc6004803603606081101561069257600080fd5b81019080803590602001909291908035906020019092919080359060200190929190505050611129565b005b6106ea600480360360208110156106d457600080fd5b8101908080359060200190929190505050611321565b604051808781526020018681526020018581526020018473ffffffffffffffffffffffffffffffffffffffff1673ffffffffffffffffffffffffffffffffffffffff16815260200183600381111561073e57fe5b60ff168152602001828152602001965050505050505060405180910390f35b6108ad6004803603604081101561077357600080fd5b810190808035906020019064010000000081111561079057600080fd5b8201836020820111156107a257600080fd5b803590602001918460018302840111640100000000831117156107c457600080fd5b91908080601f016020809104026020016040519081016040528093929190818152602001838380828437600081840152601f19601f8201169050808301925050505050505091929192908035906020019064010000000081111561082757600080fd5b82018360208201111561083957600080fd5b8035906020019184600183028401116401000000008311171561085b57600080fd5b91908080601f016020809104026020016040519081016040528093929190818152602001838380828437600081840152601f19601f82011690508083019250505050505050919291929050505061138a565b604051808215151515815260200191505060405180910390f35b6108f3600480360360208110156108dd57600080fd5b8101908080359060200190929190505050611595565b005b6108fd611901565b6040518082815260200191505060405180910390f35b60025481565b60015481565b6000610929611907565b6005836040518082805190602001908083835b6020831061095f578051825260208201915060208101905060208303925061093c565b6001836020036101000a0380198251168184511680821785525050505050509050019150509081526020016040518091039020604051806060016040529081600082018054600181600116156101000203166002900480601f016020809104026020016040519081016040528092919081815260200182805460018160011615610100020316600290048015610a365780601f10610a0b57610100808354040283529160200191610a36565b820191906000526020600020905b815481529060010190602001808311610a1957829003601f168201915b50505050508152602001600182018054600181600116156101000203166002900480601f016020809104026020016040519081016040528092919081815260200182805460018160011615610100020316600290048015610ad85780601f10610aad57610100808354040283529160200191610ad8565b820191906000526020600020905b815481529060010190602001808311610abb57829003601f168201915b505050505081526020016002820160009054906101000a900473ffffffffffffffffffffffffffffffffffffffff1673ffffffffffffffffffffffffffffffffffffffff1673ffffffffffffffffffffffffffffffffffffffff168152505090508060400151915050919050565b600160008154809291906001019190505550600060046000600154815260200190815260200160002090506001548160000181905550428160020181905550338160030160006101000a81548173ffffffffffffffffffffffffffffffffffffffff021916908373ffffffffffffffffffffffffffffffffffffffff16021790555060008160030160146101000a81548160ff02191690836003811115610be957fe5b02179055507f7ab7b5bf31475b82f820e7fdfd6387632fc391f3bbd3f28afa54804f30bebd4d60015442604051808381526020018281526020019250505060405180910390a150565b600581805160208101820180518482526020830160208501208183528095505050505050600091509050806000018054600181600116156101000203166002900480601f016020809104026020016040519081016040528092919081815260200182805460018160011615610100020316600290048015610cf45780601f10610cc957610100808354040283529160200191610cf4565b820191906000526020600020905b815481529060010190602001808311610cd757829003601f168201915b505050505090806001018054600181600116156101000203166002900480601f016020809104026020016040519081016040528092919081815260200182805460018160011615610100020316600290048015610d925780601f10610d6757610100808354040283529160200191610d92565b820191906000526020600020905b815481529060010190602001808311610d7557829003601f168201915b5050505050908060020160009054906101000a900473ffffffffffffffffffffffffffffffffffffffff16905083565b6003602052806000526040600020600091509050806000015490806001018054600181600116156101000203166002900480601f016020809104026020016040519081016040528092919081815260200182805460018160011615610100020316600290048015610e745780601f10610e4957610100808354040283529160200191610e74565b820191906000526020600020905b815481529060010190602001808311610e5757829003601f168201915b5050505050908060020154908060030154908060040160009054906101000a900473ffffffffffffffffffffffffffffffffffffffff16905085565b600080610ebb61193e565b6004600086815260200190815260200160002060050160008581526020019081526020016000206040518060400160405290816000820154815260200160018201548152505090506000816000015190506000826020015190508181945094505050509250929050565b60405180606001604052808381526020018281526020013373ffffffffffffffffffffffffffffffffffffffff168152506005836040518082805190602001908083835b60208310610f8c5780518252602082019150602081019050602083039250610f69565b6001836020036101000a03801982511681845116808217855250505050505090500191505090815260200160405180910390206000820151816000019080519060200190610fdb929190611958565b506020820151816001019080519060200190610ff8929190611958565b5060408201518160020160006101000a81548173ffffffffffffffffffffffffffffffffffffffff021916908373ffffffffffffffffffffffffffffffffffffffff1602179055509050506002600081548092919060010191905055507f673b132bfab7898651385299bf51a81f5d71d70c785d2c713bce0b05613b9518823360405180806020018373ffffffffffffffffffffffffffffffffffffffff1673ffffffffffffffffffffffffffffffffffffffff168152602001828103825284818151815260200191508051906020019080838360005b838110156110ea5780820151818401526020810190506110cf565b50505050905090810190601f1680156111175780820380516001836020036101000a031916815260200191505b50935050505060405180910390a15050565b600060046000838152602001908152602001600020600101549050600080905060008090505b828110156111d357856004600086815260200190815260200160002060050160008381526020019081526020016000206000015414156111c6578460046000868152602001908152602001600020600501600083815260200190815260200160002060010160008282540192505081905550600191505b808060010191505061114f565b5060001515811515141561129f576111e961193e565b604051806040016040528087815260200186815250905080600460008681526020019081526020016000206005016000858152602001908152602001600020600082015181600001556020820151816001015590505060016004600086815260200190815260200160002060030160146101000a81548160ff0219169083600381111561127257fe5b02179055506004600085815260200190815260200160002060010160008154809291906001019190505550505b8360036000878152602001908152602001600020600201540260046000858152602001908152602001600020600401600082825401925050819055507f6c8a69f6f50a04ff6feb77c7aca427bfdb47c2fc59f1c399b40d462d9b943d398584604051808381526020018281526020019250505060405180910390a15050505050565b60046020528060005260406000206000915090508060000154908060010154908060020154908060030160009054906101000a900473ffffffffffffffffffffffffffffffffffffffff16908060030160149054906101000a900460ff16908060040154905086565b600060606005846040518082805190602001908083835b602083106113c457805182526020820191506020810190506020830392506113a1565b6001836020036101000a03801982511681845116808217855250505050505090500191505090815260200160405180910390206001018054600181600116156101000203166002900480601f01602080910402602001604051908101604052809291908181526020018280546001816001161561010002031660029004801561148e5780601f106114635761010080835404028352916020019161148e565b820191906000526020600020905b81548152906001019060200180831161147157829003601f168201915b50505050509050826040516020018082805190602001908083835b602083106114cc57805182526020820191506020810190506020830392506114a9565b6001836020036101000a03801982511681845116808217855250505050505090500191505060405160208183030381529060405280519060200120816040516020018082805190602001908083835b6020831061153e578051825260208201915060208101905060208303925061151b565b6001836020036101000a03801982511681845116808217855250505050505090500191505060405160208183030381529060405280519060200120141561158957600191505061158f565b60009150505b92915050565b60026004600083815260200190815260200160002060030160146101000a81548160ff021916908360038111156115c857fe5b021790555060006004600083815260200190815260200160002060010154905060006004600084815260200190815260200160002060040154905060606000809050606060008090505b858110156118055760036000600460008a8152602001908152602001600020600501600084815260200190815260200160002060000154815260200190815260200160002060040160009054906101000a900473ffffffffffffffffffffffffffffffffffffffff1673ffffffffffffffffffffffffffffffffffffffff168460018303815181106116a057fe5b602002602001015173ffffffffffffffffffffffffffffffffffffffff16146117f85760036000600460008a8152602001908152602001600020600501600084815260200190815260200160002060000154815260200190815260200160002060040160009054906101000a900473ffffffffffffffffffffffffffffffffffffffff1684828151811061173057fe5b602002602001019073ffffffffffffffffffffffffffffffffffffffff16908173ffffffffffffffffffffffffffffffffffffffff16815250506004600088815260200190815260200160002060050160008281526020019081526020016000206001015460036000600460008b8152602001908152602001600020600501600085815260200190815260200160002060000154815260200190815260200160002060020154028282815181106117e357fe5b60200260200101818152505082806001019350505b8080600101915050611612565b50600182141561186f578260008151811061181c57fe5b602002602001015173ffffffffffffffffffffffffffffffffffffffff166108fc859081150290604051600060405180830381858888f19350505050158015611869573d6000803e3d6000fd5b506118f9565b60008090505b828110156118f75783818151811061188957fe5b602002602001015173ffffffffffffffffffffffffffffffffffffffff166108fc8383815181106118b657fe5b60200260200101519081150290604051600060405180830381858888f193505050501580156118e9573d6000803e3d6000fd5b508080600101915050611875565b505b505050505050565b60005481565b60405180606001604052806060815260200160608152602001600073ffffffffffffffffffffffffffffffffffffffff1681525090565b604051806040016040528060008152602001600081525090565b828054600181600116156101000203166002900490600052602060002090601f016020900481019282601f1061199957805160ff19168380011785556119c7565b828001600101855582156119c7579182015b828111156119c65782518255916020019190600101906119ab565b5b5090506119d491906119d8565b5090565b6119fa91905b808211156119f65760008160009055506001016119de565b5090565b9056fea265627a7a723158202dade03664a84bc47b4075c92a4d34e266c9c523b59bf7e3a576c203c6543ccd64736f6c63430005100032",
  "source": "pragma solidity >=0.4.22 <0.8.0;\n\ncontract Order{\n    uint public productCount = 0;\n    uint public orderCount = 0;\n    uint public userCount = 0;\n    mapping(uint => Product) public products;\n    mapping(uint => ord) public orders;\n    mapping(string => User) public users;\n    enum State {New, InProcess, Submitted, Cancelled }\n\n    struct ord{\n        uint orderId;\n        uint productCount;\n        uint creationDate;\n        address payable buyer;\n        State orderState;\n        uint totalSum;\n        mapping(uint => ProductInOrder) addedProducts;\n    }\n\n    struct Product{\n        uint id;\n        string productName;\n        uint price;\n        uint availableQuantity;\n        address payable merchant;\n    }\n\n    struct ProductInOrder{\n        uint productId;\n        uint quantity;\n    }\n\n    struct User{\n        string username;\n        string password;\n        address payable userAddress;\n    }\n\n    event ProductAdded(\n        uint id,\n        string productName,\n        uint price,\n        uint quantity,\n        address payable merchant\n    );\n\n    event OrderCreated(\n        uint orderId,\n        uint creationDate\n    );\n\n    event ProductAddedToOrder(\n        uint _productId,\n        uint _quantity\n    );\n\n    event UserCreated(\n        string username,\n        address userAddress\n    );\n\n    constructor () public {\n        addProduct(\"Skalbimo maina\", 5, 3);\n        addProduct(\"Kaitlent\", 8, 2);\n        addProduct(\"Gartraukis\", 2, 5);\n        addProduct(\"Orkait\", 4, 5);\n    }\n\n    function createUser(\n        string memory _username,\n        string memory _password\n    ) public{\n        users[_username] = User(_username, _password, msg.sender);\n        userCount++;\n        emit UserCreated(_username, msg.sender);\n    }\n\n    function checkUser(\n        string memory _username,\n        string memory _password\n    ) public view returns (bool){\n        string memory password = users[_username].password;\n        if(keccak256(abi.encodePacked(password)) == keccak256(abi.encodePacked(_password))){\n            return true;\n        }\n        else{\n            return false;\n        }\n    }\n\n    function addProduct(\n        string memory _productName,\n        uint _price,\n        uint _quantity\n    ) private {\n        products[productCount] = Product(productCount, _productName, _price, _quantity, msg.sender);\n        productCount++;\n    }\n\n    function createOrder() public{\n        orderCount++;\n        ord storage o = orders[orderCount];\n        o.orderId = orderCount;\n        o.creationDate = block.timestamp;\n        o.buyer = msg.sender;\n        o.orderState = State.New;\n\n        emit OrderCreated(orderCount, block.timestamp);\n    }\n\n    function addProductToOrder(uint productId, uint quantity, uint orderId) public{\n        uint prodCount = orders[orderId].productCount;\n        bool doesProductExist = false;\n        \n        for(uint i = 0; i < prodCount; i++){\n            if(orders[orderId].addedProducts[i].productId == productId){\n                orders[orderId].addedProducts[i].quantity += quantity;\n                doesProductExist = true;\n            }\n        }\n        if(doesProductExist == false){\n            ProductInOrder memory temp = ProductInOrder(productId, quantity);\n            orders[orderId].addedProducts[prodCount] = temp;\n            orders[orderId].orderState = State.InProcess;\n            \n            orders[orderId].productCount++;\n        }\n        \n        orders[orderId].totalSum += products[productId].price * quantity;\n\n        emit ProductAddedToOrder(productId, orderId);\n    }\n\n    function submitOrder(uint orderId) public {\n        orders[orderId].orderState = State.Submitted;\n        uint prodCount = orders[orderId].productCount;\n        uint totalSum = orders[orderId].totalSum;\n        address payable[] memory receivers;\n        uint receiverCount = 0;\n        uint[] memory sums;\n        for(uint i = 0; i < prodCount; i++){\n            if(receivers[i-1] != products[orders[orderId].addedProducts[i].productId].merchant){\n                receivers[i] = products[orders[orderId].addedProducts[i].productId].merchant;\n                sums[i] = products[orders[orderId].addedProducts[i].productId].price * orders[orderId].addedProducts[i].quantity;\n                receiverCount++;\n            }\n        }\n        if(receiverCount == 1){\n            receivers[0].transfer(totalSum);\n        }\n        else{\n            for(uint i = 0; i < receiverCount; i++){\n                receivers[i].transfer(sums[i]);\n            }\n        }\n    }\n    \n    function userReturn(string memory username) public view returns(address){\n        User memory curUser = users[username];\n        return curUser.userAddress;\n    }\n\n    function getAddedProduct(uint orderId, uint productNo) public view returns(uint, uint){\n        ProductInOrder memory temp = orders[orderId].addedProducts[productNo];\n        uint productId = temp.productId;\n        uint quantity = temp.quantity;\n        return (productId, quantity);\n    }\n}",
  "sourcePath": "/Users/karolis/Desktop/e-shop/contracts/Order.sol",
  "compiler": {
    "name": "solc",
    "version": "0.5.16+commit.9c3226ce.Emscripten.clang"
  },
  "schemaVersion": "3.4.3",
  "updatedAt": "2021-12-17T01:02:32.809Z",
  "networkType": "ethereum",
  "devdoc": {
    "methods": {}
  },
  "userdoc": {
    "methods": {}
  }
}